{
  "_format": "hh-sol-artifact-1",
  "contractName": "NFTMarketplace",
  "sourceName": "contracts/NFTMarketplace.sol",
  "abi": [
    {
      "inputs": [
        {
          "internalType": "address",
          "name": "customTokenAddress",
          "type": "address"
        }
      ],
      "stateMutability": "nonpayable",
      "type": "constructor"
    },
    {
      "inputs": [
        {
          "internalType": "address",
          "name": "sender",
          "type": "address"
        },
        {
          "internalType": "uint256",
          "name": "tokenId",
          "type": "uint256"
        },
        {
          "internalType": "address",
          "name": "owner",
          "type": "address"
        }
      ],
      "name": "ERC721IncorrectOwner",
      "type": "error"
    },
    {
      "inputs": [
        {
          "internalType": "address",
          "name": "operator",
          "type": "address"
        },
        {
          "internalType": "uint256",
          "name": "tokenId",
          "type": "uint256"
        }
      ],
      "name": "ERC721InsufficientApproval",
      "type": "error"
    },
    {
      "inputs": [
        {
          "internalType": "address",
          "name": "approver",
          "type": "address"
        }
      ],
      "name": "ERC721InvalidApprover",
      "type": "error"
    },
    {
      "inputs": [
        {
          "internalType": "address",
          "name": "operator",
          "type": "address"
        }
      ],
      "name": "ERC721InvalidOperator",
      "type": "error"
    },
    {
      "inputs": [
        {
          "internalType": "address",
          "name": "owner",
          "type": "address"
        }
      ],
      "name": "ERC721InvalidOwner",
      "type": "error"
    },
    {
      "inputs": [
        {
          "internalType": "address",
          "name": "receiver",
          "type": "address"
        }
      ],
      "name": "ERC721InvalidReceiver",
      "type": "error"
    },
    {
      "inputs": [
        {
          "internalType": "address",
          "name": "sender",
          "type": "address"
        }
      ],
      "name": "ERC721InvalidSender",
      "type": "error"
    },
    {
      "inputs": [
        {
          "internalType": "uint256",
          "name": "tokenId",
          "type": "uint256"
        }
      ],
      "name": "ERC721NonexistentToken",
      "type": "error"
    },
    {
      "anonymous": false,
      "inputs": [
        {
          "indexed": true,
          "internalType": "address",
          "name": "owner",
          "type": "address"
        },
        {
          "indexed": true,
          "internalType": "address",
          "name": "approved",
          "type": "address"
        },
        {
          "indexed": true,
          "internalType": "uint256",
          "name": "tokenId",
          "type": "uint256"
        }
      ],
      "name": "Approval",
      "type": "event"
    },
    {
      "anonymous": false,
      "inputs": [
        {
          "indexed": true,
          "internalType": "address",
          "name": "owner",
          "type": "address"
        },
        {
          "indexed": true,
          "internalType": "address",
          "name": "operator",
          "type": "address"
        },
        {
          "indexed": false,
          "internalType": "bool",
          "name": "approved",
          "type": "bool"
        }
      ],
      "name": "ApprovalForAll",
      "type": "event"
    },
    {
      "anonymous": false,
      "inputs": [
        {
          "indexed": false,
          "internalType": "uint256",
          "name": "_fromTokenId",
          "type": "uint256"
        },
        {
          "indexed": false,
          "internalType": "uint256",
          "name": "_toTokenId",
          "type": "uint256"
        }
      ],
      "name": "BatchMetadataUpdate",
      "type": "event"
    },
    {
      "anonymous": false,
      "inputs": [
        {
          "indexed": false,
          "internalType": "uint256",
          "name": "_tokenId",
          "type": "uint256"
        }
      ],
      "name": "MetadataUpdate",
      "type": "event"
    },
    {
      "anonymous": false,
      "inputs": [
        {
          "indexed": true,
          "internalType": "uint256",
          "name": "tokenId",
          "type": "uint256"
        },
        {
          "indexed": false,
          "internalType": "address",
          "name": "owner",
          "type": "address"
        },
        {
          "indexed": false,
          "internalType": "address",
          "name": "seller",
          "type": "address"
        },
        {
          "indexed": false,
          "internalType": "uint256",
          "name": "price",
          "type": "uint256"
        },
        {
          "indexed": false,
          "internalType": "bool",
          "name": "currentlyListed",
          "type": "bool"
        }
      ],
      "name": "TokenListedSuccess",
      "type": "event"
    },
    {
      "anonymous": false,
      "inputs": [
        {
          "indexed": true,
          "internalType": "uint256",
          "name": "tokenId",
          "type": "uint256"
        },
        {
          "indexed": true,
          "internalType": "address",
          "name": "owner",
          "type": "address"
        }
      ],
      "name": "TokenListingCancelled",
      "type": "event"
    },
    {
      "anonymous": false,
      "inputs": [
        {
          "indexed": true,
          "internalType": "address",
          "name": "from",
          "type": "address"
        },
        {
          "indexed": true,
          "internalType": "address",
          "name": "to",
          "type": "address"
        },
        {
          "indexed": true,
          "internalType": "uint256",
          "name": "tokenId",
          "type": "uint256"
        }
      ],
      "name": "Transfer",
      "type": "event"
    },
    {
      "inputs": [
        {
          "internalType": "address",
          "name": "to",
          "type": "address"
        },
        {
          "internalType": "uint256",
          "name": "tokenId",
          "type": "uint256"
        }
      ],
      "name": "approve",
      "outputs": [],
      "stateMutability": "nonpayable",
      "type": "function"
    },
    {
      "inputs": [
        {
          "internalType": "address",
          "name": "owner",
          "type": "address"
        }
      ],
      "name": "balanceOf",
      "outputs": [
        {
          "internalType": "uint256",
          "name": "",
          "type": "uint256"
        }
      ],
      "stateMutability": "view",
      "type": "function"
    },
    {
      "inputs": [
        {
          "internalType": "uint256",
          "name": "tokenId",
          "type": "uint256"
        }
      ],
      "name": "cancelList",
      "outputs": [],
      "stateMutability": "nonpayable",
      "type": "function"
    },
    {
      "inputs": [
        {
          "internalType": "string",
          "name": "tokenURI",
          "type": "string"
        },
        {
          "internalType": "uint256",
          "name": "price",
          "type": "uint256"
        }
      ],
      "name": "createToken",
      "outputs": [
        {
          "internalType": "uint256",
          "name": "",
          "type": "uint256"
        }
      ],
      "stateMutability": "nonpayable",
      "type": "function"
    },
    {
      "inputs": [],
      "name": "customToken",
      "outputs": [
        {
          "internalType": "contract IERC20",
          "name": "",
          "type": "address"
        }
      ],
      "stateMutability": "view",
      "type": "function"
    },
    {
      "inputs": [
        {
          "internalType": "uint256",
          "name": "tokenId",
          "type": "uint256"
        }
      ],
      "name": "executeSale",
      "outputs": [],
      "stateMutability": "nonpayable",
      "type": "function"
    },
    {
      "inputs": [],
      "name": "getAllNFTs",
      "outputs": [
        {
          "components": [
            {
              "internalType": "uint256",
              "name": "tokenId",
              "type": "uint256"
            },
            {
              "internalType": "address payable",
              "name": "owner",
              "type": "address"
            },
            {
              "internalType": "address payable",
              "name": "seller",
              "type": "address"
            },
            {
              "internalType": "uint256",
              "name": "price",
              "type": "uint256"
            },
            {
              "internalType": "bool",
              "name": "currentlyListed",
              "type": "bool"
            }
          ],
          "internalType": "struct NFTMarketplace.ListedToken[]",
          "name": "",
          "type": "tuple[]"
        }
      ],
      "stateMutability": "view",
      "type": "function"
    },
    {
      "inputs": [
        {
          "internalType": "uint256",
          "name": "tokenId",
          "type": "uint256"
        }
      ],
      "name": "getApproved",
      "outputs": [
        {
          "internalType": "address",
          "name": "",
          "type": "address"
        }
      ],
      "stateMutability": "view",
      "type": "function"
    },
    {
      "inputs": [],
      "name": "getCurrentToken",
      "outputs": [
        {
          "internalType": "uint256",
          "name": "",
          "type": "uint256"
        }
      ],
      "stateMutability": "view",
      "type": "function"
    },
    {
      "inputs": [],
      "name": "getLatestIdToListedToken",
      "outputs": [
        {
          "components": [
            {
              "internalType": "uint256",
              "name": "tokenId",
              "type": "uint256"
            },
            {
              "internalType": "address payable",
              "name": "owner",
              "type": "address"
            },
            {
              "internalType": "address payable",
              "name": "seller",
              "type": "address"
            },
            {
              "internalType": "uint256",
              "name": "price",
              "type": "uint256"
            },
            {
              "internalType": "bool",
              "name": "currentlyListed",
              "type": "bool"
            }
          ],
          "internalType": "struct NFTMarketplace.ListedToken",
          "name": "",
          "type": "tuple"
        }
      ],
      "stateMutability": "view",
      "type": "function"
    },
    {
      "inputs": [],
      "name": "getListPrice",
      "outputs": [
        {
          "internalType": "uint256",
          "name": "",
          "type": "uint256"
        }
      ],
      "stateMutability": "view",
      "type": "function"
    },
    {
      "inputs": [
        {
          "internalType": "uint256",
          "name": "tokenId",
          "type": "uint256"
        }
      ],
      "name": "getListedTokenForId",
      "outputs": [
        {
          "components": [
            {
              "internalType": "uint256",
              "name": "tokenId",
              "type": "uint256"
            },
            {
              "internalType": "address payable",
              "name": "owner",
              "type": "address"
            },
            {
              "internalType": "address payable",
              "name": "seller",
              "type": "address"
            },
            {
              "internalType": "uint256",
              "name": "price",
              "type": "uint256"
            },
            {
              "internalType": "bool",
              "name": "currentlyListed",
              "type": "bool"
            }
          ],
          "internalType": "struct NFTMarketplace.ListedToken",
          "name": "",
          "type": "tuple"
        }
      ],
      "stateMutability": "view",
      "type": "function"
    },
    {
      "inputs": [],
      "name": "getMyNFTs",
      "outputs": [
        {
          "components": [
            {
              "internalType": "uint256",
              "name": "tokenId",
              "type": "uint256"
            },
            {
              "internalType": "address payable",
              "name": "owner",
              "type": "address"
            },
            {
              "internalType": "address payable",
              "name": "seller",
              "type": "address"
            },
            {
              "internalType": "uint256",
              "name": "price",
              "type": "uint256"
            },
            {
              "internalType": "bool",
              "name": "currentlyListed",
              "type": "bool"
            }
          ],
          "internalType": "struct NFTMarketplace.ListedToken[]",
          "name": "",
          "type": "tuple[]"
        }
      ],
      "stateMutability": "view",
      "type": "function"
    },
    {
      "inputs": [],
      "name": "getTokens",
      "outputs": [],
      "stateMutability": "nonpayable",
      "type": "function"
    },
    {
      "inputs": [
        {
          "internalType": "address",
          "name": "owner",
          "type": "address"
        },
        {
          "internalType": "address",
          "name": "operator",
          "type": "address"
        }
      ],
      "name": "isApprovedForAll",
      "outputs": [
        {
          "internalType": "bool",
          "name": "",
          "type": "bool"
        }
      ],
      "stateMutability": "view",
      "type": "function"
    },
    {
      "inputs": [],
      "name": "itemsSold",
      "outputs": [
        {
          "internalType": "uint256",
          "name": "",
          "type": "uint256"
        }
      ],
      "stateMutability": "view",
      "type": "function"
    },
    {
      "inputs": [],
      "name": "name",
      "outputs": [
        {
          "internalType": "string",
          "name": "",
          "type": "string"
        }
      ],
      "stateMutability": "view",
      "type": "function"
    },
    {
      "inputs": [
        {
          "internalType": "uint256",
          "name": "tokenId",
          "type": "uint256"
        }
      ],
      "name": "ownerOf",
      "outputs": [
        {
          "internalType": "address",
          "name": "",
          "type": "address"
        }
      ],
      "stateMutability": "view",
      "type": "function"
    },
    {
      "inputs": [
        {
          "internalType": "address",
          "name": "from",
          "type": "address"
        },
        {
          "internalType": "address",
          "name": "to",
          "type": "address"
        },
        {
          "internalType": "uint256",
          "name": "tokenId",
          "type": "uint256"
        }
      ],
      "name": "safeTransferFrom",
      "outputs": [],
      "stateMutability": "nonpayable",
      "type": "function"
    },
    {
      "inputs": [
        {
          "internalType": "address",
          "name": "from",
          "type": "address"
        },
        {
          "internalType": "address",
          "name": "to",
          "type": "address"
        },
        {
          "internalType": "uint256",
          "name": "tokenId",
          "type": "uint256"
        },
        {
          "internalType": "bytes",
          "name": "data",
          "type": "bytes"
        }
      ],
      "name": "safeTransferFrom",
      "outputs": [],
      "stateMutability": "nonpayable",
      "type": "function"
    },
    {
      "inputs": [
        {
          "internalType": "uint256",
          "name": "tokenId",
          "type": "uint256"
        },
        {
          "internalType": "uint256",
          "name": "price",
          "type": "uint256"
        }
      ],
      "name": "sellNFT",
      "outputs": [],
      "stateMutability": "nonpayable",
      "type": "function"
    },
    {
      "inputs": [
        {
          "internalType": "address",
          "name": "operator",
          "type": "address"
        },
        {
          "internalType": "bool",
          "name": "approved",
          "type": "bool"
        }
      ],
      "name": "setApprovalForAll",
      "outputs": [],
      "stateMutability": "nonpayable",
      "type": "function"
    },
    {
      "inputs": [
        {
          "internalType": "bytes4",
          "name": "interfaceId",
          "type": "bytes4"
        }
      ],
      "name": "supportsInterface",
      "outputs": [
        {
          "internalType": "bool",
          "name": "",
          "type": "bool"
        }
      ],
      "stateMutability": "view",
      "type": "function"
    },
    {
      "inputs": [],
      "name": "symbol",
      "outputs": [
        {
          "internalType": "string",
          "name": "",
          "type": "string"
        }
      ],
      "stateMutability": "view",
      "type": "function"
    },
    {
      "inputs": [],
      "name": "tokenCounter",
      "outputs": [
        {
          "internalType": "uint256",
          "name": "",
          "type": "uint256"
        }
      ],
      "stateMutability": "view",
      "type": "function"
    },
    {
      "inputs": [
        {
          "internalType": "uint256",
          "name": "tokenId",
          "type": "uint256"
        }
      ],
      "name": "tokenURI",
      "outputs": [
        {
          "internalType": "string",
          "name": "",
          "type": "string"
        }
      ],
      "stateMutability": "view",
      "type": "function"
    },
    {
      "inputs": [
        {
          "internalType": "address",
          "name": "from",
          "type": "address"
        },
        {
          "internalType": "address",
          "name": "to",
          "type": "address"
        },
        {
          "internalType": "uint256",
          "name": "tokenId",
          "type": "uint256"
        }
      ],
      "name": "transferFrom",
      "outputs": [],
      "stateMutability": "nonpayable",
      "type": "function"
    },
    {
      "inputs": [
        {
          "internalType": "uint256",
          "name": "_listPrice",
          "type": "uint256"
        }
      ],
      "name": "updateListPrice",
      "outputs": [],
      "stateMutability": "nonpayable",
      "type": "function"
    }
  ],
  "bytecode": "0x6080604052662386f26fc10000600a553480156200001c57600080fd5b50604051620047ab380380620047ab8339818101604052810190620000429190620001d7565b6040518060400160405280600e81526020017f4e46544d61726b6574706c6163650000000000000000000000000000000000008152506040518060400160405280600481526020017f4e46544d000000000000000000000000000000000000000000000000000000008152508160009081620000bf919062000483565b508060019081620000d1919062000483565b50505033600960006101000a81548173ffffffffffffffffffffffffffffffffffffffff021916908373ffffffffffffffffffffffffffffffffffffffff1602179055506000600781905550600060088190555080600b60006101000a81548173ffffffffffffffffffffffffffffffffffffffff021916908373ffffffffffffffffffffffffffffffffffffffff160217905550506200056a565b600080fd5b600073ffffffffffffffffffffffffffffffffffffffff82169050919050565b60006200019f8262000172565b9050919050565b620001b18162000192565b8114620001bd57600080fd5b50565b600081519050620001d181620001a6565b92915050565b600060208284031215620001f057620001ef6200016d565b5b60006200020084828501620001c0565b91505092915050565b600081519050919050565b7f4e487b7100000000000000000000000000000000000000000000000000000000600052604160045260246000fd5b7f4e487b7100000000000000000000000000000000000000000000000000000000600052602260045260246000fd5b600060028204905060018216806200028b57607f821691505b602082108103620002a157620002a062000243565b5b50919050565b60008190508160005260206000209050919050565b60006020601f8301049050919050565b600082821b905092915050565b6000600883026200030b7fffffffffffffffffffffffffffffffffffffffffffffffffffffffffffffffff82620002cc565b620003178683620002cc565b95508019841693508086168417925050509392505050565b6000819050919050565b6000819050919050565b6000620003646200035e62000358846200032f565b62000339565b6200032f565b9050919050565b6000819050919050565b620003808362000343565b620003986200038f826200036b565b848454620002d9565b825550505050565b600090565b620003af620003a0565b620003bc81848462000375565b505050565b5b81811015620003e457620003d8600082620003a5565b600181019050620003c2565b5050565b601f8211156200043357620003fd81620002a7565b6200040884620002bc565b8101602085101562000418578190505b620004306200042785620002bc565b830182620003c1565b50505b505050565b600082821c905092915050565b6000620004586000198460080262000438565b1980831691505092915050565b600062000473838362000445565b9150826002028217905092915050565b6200048e8262000209565b67ffffffffffffffff811115620004aa57620004a962000214565b5b620004b6825462000272565b620004c3828285620003e8565b600060209050601f831160018114620004fb5760008415620004e6578287015190505b620004f2858262000465565b86555062000562565b601f1984166200050b86620002a7565b60005b8281101562000535578489015182556001820191506020850194506020810190506200050e565b8683101562000555578489015162000551601f89168262000445565b8355505b6001600288020188555050505b505050505050565b614231806200057a6000396000f3fe608060405234801561001057600080fd5b50600436106101c45760003560e01c806391a48a1e116100f9578063c87b56dd11610097578063d1a88ae511610071578063d1a88ae5146104f1578063e0391b091461050f578063e985e9c51461052d578063ef2d17461461055d576101c4565b8063c87b56dd14610487578063c9c9d2d8146104b7578063d082e381146104d3576101c4565b8063a22cb465116100d3578063a22cb46514610429578063aa6ca80814610445578063b88d4fde1461044f578063c322579c1461046b576101c4565b806391a48a1e146103d357806395d89b41146103ef5780639b1225c41461040d576101c4565b80636352211e1161016657806372b3b6201161014057806372b3b62014610337578063899e3106146103675780638e26459014610385578063913e0a48146103b5576101c4565b80636352211e146102b957806368f1945f146102e957806370a0823114610307576101c4565b8063095ea7b3116101a2578063095ea7b31461024757806323b872dd1461026357806342842e0e1461027f578063629cb2e41461029b576101c4565b806301ffc9a7146101c957806306fdde03146101f9578063081812fc14610217575b600080fd5b6101e360048036038101906101de9190612e90565b61057b565b6040516101f09190612ed8565b60405180910390f35b6102016105dc565b60405161020e9190612f83565b60405180910390f35b610231600480360381019061022c9190612fdb565b61066e565b60405161023e9190613049565b60405180910390f35b610261600480360381019061025c9190613090565b61068a565b005b61027d600480360381019061027891906130d0565b6106a0565b005b610299600480360381019061029491906130d0565b6107a2565b005b6102a36107c2565b6040516102b09190613279565b60405180910390f35b6102d360048036038101906102ce9190612fdb565b610b5d565b6040516102e09190613049565b60405180910390f35b6102f1610b6f565b6040516102fe91906132aa565b60405180910390f35b610321600480360381019061031c91906132c5565b610b79565b60405161032e91906132aa565b60405180910390f35b610351600480360381019061034c9190613427565b610c33565b60405161035e91906132aa565b60405180910390f35b61036f610f33565b60405161037c91906134e2565b60405180910390f35b61039f600480360381019061039a9190612fdb565b610f59565b6040516103ac9190613565565b60405180910390f35b6103bd611061565b6040516103ca91906132aa565b60405180910390f35b6103ed60048036038101906103e89190613580565b611067565b005b6103f7611247565b6040516104049190612f83565b60405180910390f35b61042760048036038101906104229190612fdb565b6112d9565b005b610443600480360381019061043e91906135ec565b611583565b005b61044d611599565b005b610469600480360381019061046491906136cd565b611688565b005b61048560048036038101906104809190612fdb565b6116a5565b005b6104a1600480360381019061049c9190612fdb565b61173f565b6040516104ae9190612f83565b60405180910390f35b6104d160048036038101906104cc9190612fdb565b611852565b005b6104db6119da565b6040516104e891906132aa565b60405180910390f35b6104f96119e0565b6040516105069190613565565b60405180910390f35b610517611ae8565b6040516105249190613279565b60405180910390f35b61054760048036038101906105429190613750565b611c9a565b6040516105549190612ed8565b60405180910390f35b610565611d2e565b60405161057291906132aa565b60405180910390f35b6000634906490660e01b7bffffffffffffffffffffffffffffffffffffffffffffffffffffffff1916827bffffffffffffffffffffffffffffffffffffffffffffffffffffffff191614806105d557506105d482611d38565b5b9050919050565b6060600080546105eb906137bf565b80601f0160208091040260200160405190810160405280929190818152602001828054610617906137bf565b80156106645780601f1061063957610100808354040283529160200191610664565b820191906000526020600020905b81548152906001019060200180831161064757829003601f168201915b5050505050905090565b600061067982611e1a565b5061068382611ea2565b9050919050565b61069c8282610697611edf565b611ee7565b5050565b600073ffffffffffffffffffffffffffffffffffffffff168273ffffffffffffffffffffffffffffffffffffffff16036107125760006040517f64a0ae920000000000000000000000000000000000000000000000000000000081526004016107099190613049565b60405180910390fd5b60006107268383610721611edf565b611ef9565b90508373ffffffffffffffffffffffffffffffffffffffff168173ffffffffffffffffffffffffffffffffffffffff161461079c578382826040517f64283d7b000000000000000000000000000000000000000000000000000000008152600401610793939291906137f0565b60405180910390fd5b50505050565b6107bd83838360405180602001604052806000815250611688565b505050565b60606000600754905060008060005b838110156108d2573373ffffffffffffffffffffffffffffffffffffffff16600c600083815260200190815260200160002060010160009054906101000a900473ffffffffffffffffffffffffffffffffffffffff1673ffffffffffffffffffffffffffffffffffffffff1614806108aa57503373ffffffffffffffffffffffffffffffffffffffff16600c600083815260200190815260200160002060020160009054906101000a900473ffffffffffffffffffffffffffffffffffffffff1673ffffffffffffffffffffffffffffffffffffffff16145b156108bf576001836108bc9190613856565b92505b80806108ca9061388a565b9150506107d1565b5060008267ffffffffffffffff8111156108ef576108ee6132fc565b5b60405190808252806020026020018201604052801561092857816020015b610915612dc7565b81526020019060019003908161090d5790505b50905060005b84811015610b52573373ffffffffffffffffffffffffffffffffffffffff16600c600083815260200190815260200160002060010160009054906101000a900473ffffffffffffffffffffffffffffffffffffffff1673ffffffffffffffffffffffffffffffffffffffff161480610a0757503373ffffffffffffffffffffffffffffffffffffffff16600c600083815260200190815260200160002060020160009054906101000a900473ffffffffffffffffffffffffffffffffffffffff1673ffffffffffffffffffffffffffffffffffffffff16145b15610b3f5760008190506000600c60008381526020019081526020016000209050806040518060a0016040529081600082015481526020016001820160009054906101000a900473ffffffffffffffffffffffffffffffffffffffff1673ffffffffffffffffffffffffffffffffffffffff1673ffffffffffffffffffffffffffffffffffffffff1681526020016002820160009054906101000a900473ffffffffffffffffffffffffffffffffffffffff1673ffffffffffffffffffffffffffffffffffffffff1673ffffffffffffffffffffffffffffffffffffffff168152602001600382015481526020016004820160009054906101000a900460ff161515151581525050848681518110610b2257610b216138d2565b5b6020026020010181905250600185610b3a9190613856565b945050505b8080610b4a9061388a565b91505061092e565b508094505050505090565b6000610b6882611e1a565b9050919050565b6000600a54905090565b60008073ffffffffffffffffffffffffffffffffffffffff168273ffffffffffffffffffffffffffffffffffffffff1603610bec5760006040517f89c62b64000000000000000000000000000000000000000000000000000000008152600401610be39190613049565b60405180910390fd5b600360008373ffffffffffffffffffffffffffffffffffffffff1673ffffffffffffffffffffffffffffffffffffffff168152602001908152602001600020549050919050565b6000808211610c77576040517f08c379a0000000000000000000000000000000000000000000000000000000008152600401610c6e9061394d565b60405180910390fd5b600b60009054906101000a900473ffffffffffffffffffffffffffffffffffffffff1673ffffffffffffffffffffffffffffffffffffffff166323b872dd33600960009054906101000a900473ffffffffffffffffffffffffffffffffffffffff16600a546040518463ffffffff1660e01b8152600401610cfa9392919061398e565b6020604051808303816000875af1158015610d19573d6000803e3d6000fd5b505050506040513d601f19601f82011682018060405250810190610d3d91906139da565b610d7c576040517f08c379a0000000000000000000000000000000000000000000000000000000008152600401610d7390613a53565b60405180910390fd5b60006007549050610d8d3382612113565b610d978185612131565b6040518060a001604052808281526020013073ffffffffffffffffffffffffffffffffffffffff1681526020013373ffffffffffffffffffffffffffffffffffffffff16815260200184815260200160011515815250600c60008381526020019081526020016000206000820151816000015560208201518160010160006101000a81548173ffffffffffffffffffffffffffffffffffffffff021916908373ffffffffffffffffffffffffffffffffffffffff16021790555060408201518160020160006101000a81548173ffffffffffffffffffffffffffffffffffffffff021916908373ffffffffffffffffffffffffffffffffffffffff1602179055506060820151816003015560808201518160040160006101000a81548160ff021916908315150217905550905050610ed033308361218d565b807f9339409317fd01fabff48b703019016f49159bacc801ae872d2ca637d226e4c03033866001604051610f079493929190613a73565b60405180910390a2600160076000828254610f229190613856565b925050819055508091505092915050565b600b60009054906101000a900473ffffffffffffffffffffffffffffffffffffffff1681565b610f61612dc7565b600c60008381526020019081526020016000206040518060a0016040529081600082015481526020016001820160009054906101000a900473ffffffffffffffffffffffffffffffffffffffff1673ffffffffffffffffffffffffffffffffffffffff1673ffffffffffffffffffffffffffffffffffffffff1681526020016002820160009054906101000a900473ffffffffffffffffffffffffffffffffffffffff1673ffffffffffffffffffffffffffffffffffffffff1673ffffffffffffffffffffffffffffffffffffffff168152602001600382015481526020016004820160009054906101000a900460ff1615151515815250509050919050565b60085481565b600c600083815260200190815260200160002060040160009054906101000a900460ff16156110cb576040517f08c379a00000000000000000000000000000000000000000000000000000000081526004016110c290613b04565b60405180910390fd5b6040518060a001604052808381526020013073ffffffffffffffffffffffffffffffffffffffff1681526020013373ffffffffffffffffffffffffffffffffffffffff16815260200182815260200160011515815250600c60008481526020019081526020016000206000820151816000015560208201518160010160006101000a81548173ffffffffffffffffffffffffffffffffffffffff021916908373ffffffffffffffffffffffffffffffffffffffff16021790555060408201518160020160006101000a81548173ffffffffffffffffffffffffffffffffffffffff021916908373ffffffffffffffffffffffffffffffffffffffff1602179055506060820151816003015560808201518160040160006101000a81548160ff02191690831515021790555090505061120433308461218d565b817f9339409317fd01fabff48b703019016f49159bacc801ae872d2ca637d226e4c0303384600160405161123b9493929190613a73565b60405180910390a25050565b606060018054611256906137bf565b80601f0160208091040260200160405190810160405280929190818152602001828054611282906137bf565b80156112cf5780601f106112a4576101008083540402835291602001916112cf565b820191906000526020600020905b8154815290600101906020018083116112b257829003601f168201915b5050505050905090565b6000600c60008381526020019081526020016000206003015490506000600c600084815260200190815260200160002060020160009054906101000a900473ffffffffffffffffffffffffffffffffffffffff169050600b60009054906101000a900473ffffffffffffffffffffffffffffffffffffffff1673ffffffffffffffffffffffffffffffffffffffff166323b872dd3383856040518463ffffffff1660e01b815260040161138e93929190613b24565b6020604051808303816000875af11580156113ad573d6000803e3d6000fd5b505050506040513d601f19601f820116820180604052508101906113d191906139da565b611410576040517f08c379a000000000000000000000000000000000000000000000000000000000815260040161140790613ba7565b60405180910390fd5b6000600c600085815260200190815260200160002060040160006101000a81548160ff02191690831515021790555033600c600085815260200190815260200160002060020160006101000a81548173ffffffffffffffffffffffffffffffffffffffff021916908373ffffffffffffffffffffffffffffffffffffffff1602179055506001600860008282546114a79190613856565b925050819055506114b930338561218d565b600b60009054906101000a900473ffffffffffffffffffffffffffffffffffffffff1673ffffffffffffffffffffffffffffffffffffffff1663a9059cbb600960009054906101000a900473ffffffffffffffffffffffffffffffffffffffff16600a546040518363ffffffff1660e01b815260040161153a929190613bc7565b6020604051808303816000875af1158015611559573d6000803e3d6000fd5b505050506040513d601f19601f8201168201806040525081019061157d91906139da565b50505050565b61159561158e611edf565b83836122fa565b5050565b6000678ac7230489e800009050600b60009054906101000a900473ffffffffffffffffffffffffffffffffffffffff1673ffffffffffffffffffffffffffffffffffffffff1663a9059cbb33836040518363ffffffff1660e01b8152600401611603929190613bf0565b6020604051808303816000875af1158015611622573d6000803e3d6000fd5b505050506040513d601f19601f8201168201806040525081019061164691906139da565b611685576040517f08c379a000000000000000000000000000000000000000000000000000000000815260040161167c90613c65565b60405180910390fd5b50565b6116938484846106a0565b61169f84848484612469565b50505050565b3373ffffffffffffffffffffffffffffffffffffffff16600960009054906101000a900473ffffffffffffffffffffffffffffffffffffffff1673ffffffffffffffffffffffffffffffffffffffff1614611735576040517f08c379a000000000000000000000000000000000000000000000000000000000815260040161172c90613cf7565b60405180910390fd5b80600a8190555050565b606061174a82611e1a565b50600060066000848152602001908152602001600020805461176b906137bf565b80601f0160208091040260200160405190810160405280929190818152602001828054611797906137bf565b80156117e45780601f106117b9576101008083540402835291602001916117e4565b820191906000526020600020905b8154815290600101906020018083116117c757829003601f168201915b5050505050905060006117f5612620565b9050600081510361180a57819250505061184d565b60008251111561183f578082604051602001611827929190613d53565b6040516020818303038152906040529250505061184d565b61184884612637565b925050505b919050565b600c600082815260200190815260200160002060040160009054906101000a900460ff166118b5576040517f08c379a00000000000000000000000000000000000000000000000000000000081526004016118ac90613dc3565b60405180910390fd5b3373ffffffffffffffffffffffffffffffffffffffff16600c600083815260200190815260200160002060020160009054906101000a900473ffffffffffffffffffffffffffffffffffffffff1673ffffffffffffffffffffffffffffffffffffffff1614611959576040517f08c379a000000000000000000000000000000000000000000000000000000000815260040161195090613e55565b60405180910390fd5b61196430338361218d565b6000600c600083815260200190815260200160002060040160006101000a81548160ff0219169083151502179055503373ffffffffffffffffffffffffffffffffffffffff16817fd71d6d0c2c0d6f5d2b80edc53b70fe75dff3383830659b5b4ebadf07cde26ecf60405160405180910390a350565b60075481565b6119e8612dc7565b600c600060075481526020019081526020016000206040518060a0016040529081600082015481526020016001820160009054906101000a900473ffffffffffffffffffffffffffffffffffffffff1673ffffffffffffffffffffffffffffffffffffffff1673ffffffffffffffffffffffffffffffffffffffff1681526020016002820160009054906101000a900473ffffffffffffffffffffffffffffffffffffffff1673ffffffffffffffffffffffffffffffffffffffff1673ffffffffffffffffffffffffffffffffffffffff168152602001600382015481526020016004820160009054906101000a900460ff161515151581525050905090565b6060600060075467ffffffffffffffff811115611b0857611b076132fc565b5b604051908082528060200260200182016040528015611b4157816020015b611b2e612dc7565b815260200190600190039081611b265790505b5090506000805b600754811015611c91576000600c60008381526020019081526020016000209050806040518060a0016040529081600082015481526020016001820160009054906101000a900473ffffffffffffffffffffffffffffffffffffffff1673ffffffffffffffffffffffffffffffffffffffff1673ffffffffffffffffffffffffffffffffffffffff1681526020016002820160009054906101000a900473ffffffffffffffffffffffffffffffffffffffff1673ffffffffffffffffffffffffffffffffffffffff1673ffffffffffffffffffffffffffffffffffffffff168152602001600382015481526020016004820160009054906101000a900460ff161515151581525050848481518110611c6357611c626138d2565b5b6020026020010181905250600183611c7b9190613856565b9250508080611c899061388a565b915050611b48565b50819250505090565b6000600560008473ffffffffffffffffffffffffffffffffffffffff1673ffffffffffffffffffffffffffffffffffffffff16815260200190815260200160002060008373ffffffffffffffffffffffffffffffffffffffff1673ffffffffffffffffffffffffffffffffffffffff16815260200190815260200160002060009054906101000a900460ff16905092915050565b6000600754905090565b60007f80ac58cd000000000000000000000000000000000000000000000000000000007bffffffffffffffffffffffffffffffffffffffffffffffffffffffff1916827bffffffffffffffffffffffffffffffffffffffffffffffffffffffff19161480611e0357507f5b5e139f000000000000000000000000000000000000000000000000000000007bffffffffffffffffffffffffffffffffffffffffffffffffffffffff1916827bffffffffffffffffffffffffffffffffffffffffffffffffffffffff1916145b80611e135750611e12826126a0565b5b9050919050565b600080611e268361270a565b9050600073ffffffffffffffffffffffffffffffffffffffff168173ffffffffffffffffffffffffffffffffffffffff1603611e9957826040517f7e273289000000000000000000000000000000000000000000000000000000008152600401611e9091906132aa565b60405180910390fd5b80915050919050565b60006004600083815260200190815260200160002060009054906101000a900473ffffffffffffffffffffffffffffffffffffffff169050919050565b600033905090565b611ef48383836001612747565b505050565b600080611f058461270a565b9050600073ffffffffffffffffffffffffffffffffffffffff168373ffffffffffffffffffffffffffffffffffffffff1614611f4757611f4681848661290c565b5b600073ffffffffffffffffffffffffffffffffffffffff168173ffffffffffffffffffffffffffffffffffffffff1614611fd857611f89600085600080612747565b6001600360008373ffffffffffffffffffffffffffffffffffffffff1673ffffffffffffffffffffffffffffffffffffffff168152602001908152602001600020600082825403925050819055505b600073ffffffffffffffffffffffffffffffffffffffff168573ffffffffffffffffffffffffffffffffffffffff161461205b576001600360008773ffffffffffffffffffffffffffffffffffffffff1673ffffffffffffffffffffffffffffffffffffffff168152602001908152602001600020600082825401925050819055505b846002600086815260200190815260200160002060006101000a81548173ffffffffffffffffffffffffffffffffffffffff021916908373ffffffffffffffffffffffffffffffffffffffff160217905550838573ffffffffffffffffffffffffffffffffffffffff168273ffffffffffffffffffffffffffffffffffffffff167fddf252ad1be2c89b69c2b068fc378daa952ba7f163c4a11628f55a4df523b3ef60405160405180910390a4809150509392505050565b61212d8282604051806020016040528060008152506129d0565b5050565b806006600084815260200190815260200160002090816121519190614017565b507ff8e1a15aba9398e019f0b49df1a4fde98ee17ae345cb5f6b5e2c27f5033e8ce78260405161218191906132aa565b60405180910390a15050565b600073ffffffffffffffffffffffffffffffffffffffff168273ffffffffffffffffffffffffffffffffffffffff16036121ff5760006040517f64a0ae920000000000000000000000000000000000000000000000000000000081526004016121f69190613049565b60405180910390fd5b600061220d83836000611ef9565b9050600073ffffffffffffffffffffffffffffffffffffffff168173ffffffffffffffffffffffffffffffffffffffff160361228057816040517f7e27328900000000000000000000000000000000000000000000000000000000815260040161227791906132aa565b60405180910390fd5b8373ffffffffffffffffffffffffffffffffffffffff168173ffffffffffffffffffffffffffffffffffffffff16146122f4578382826040517f64283d7b0000000000000000000000000000000000000000000000000000000081526004016122eb939291906137f0565b60405180910390fd5b50505050565b600073ffffffffffffffffffffffffffffffffffffffff168273ffffffffffffffffffffffffffffffffffffffff160361236b57816040517f5b08ba180000000000000000000000000000000000000000000000000000000081526004016123629190613049565b60405180910390fd5b80600560008573ffffffffffffffffffffffffffffffffffffffff1673ffffffffffffffffffffffffffffffffffffffff16815260200190815260200160002060008473ffffffffffffffffffffffffffffffffffffffff1673ffffffffffffffffffffffffffffffffffffffff16815260200190815260200160002060006101000a81548160ff0219169083151502179055508173ffffffffffffffffffffffffffffffffffffffff168373ffffffffffffffffffffffffffffffffffffffff167f17307eab39ab6107e8899845ad3d59bd9653f200f220920489ca2b5937696c318360405161245c9190612ed8565b60405180910390a3505050565b60008373ffffffffffffffffffffffffffffffffffffffff163b111561261a578273ffffffffffffffffffffffffffffffffffffffff1663150b7a026124ad611edf565b8685856040518563ffffffff1660e01b81526004016124cf949392919061413e565b6020604051808303816000875af192505050801561250b57506040513d601f19601f82011682018060405250810190612508919061419f565b60015b61258f573d806000811461253b576040519150601f19603f3d011682016040523d82523d6000602084013e612540565b606091505b50600081510361258757836040517f64a0ae9200000000000000000000000000000000000000000000000000000000815260040161257e9190613049565b60405180910390fd5b805181602001fd5b63150b7a0260e01b7bffffffffffffffffffffffffffffffffffffffffffffffffffffffff1916817bffffffffffffffffffffffffffffffffffffffffffffffffffffffff19161461261857836040517f64a0ae9200000000000000000000000000000000000000000000000000000000815260040161260f9190613049565b60405180910390fd5b505b50505050565b606060405180602001604052806000815250905090565b606061264282611e1a565b50600061264d612620565b9050600081511161266d5760405180602001604052806000815250612698565b80612677846129ec565b604051602001612688929190613d53565b6040516020818303038152906040525b915050919050565b60007f01ffc9a7000000000000000000000000000000000000000000000000000000007bffffffffffffffffffffffffffffffffffffffffffffffffffffffff1916827bffffffffffffffffffffffffffffffffffffffffffffffffffffffff1916149050919050565b60006002600083815260200190815260200160002060009054906101000a900473ffffffffffffffffffffffffffffffffffffffff169050919050565b80806127805750600073ffffffffffffffffffffffffffffffffffffffff168273ffffffffffffffffffffffffffffffffffffffff1614155b156128b457600061279084611e1a565b9050600073ffffffffffffffffffffffffffffffffffffffff168373ffffffffffffffffffffffffffffffffffffffff16141580156127fb57508273ffffffffffffffffffffffffffffffffffffffff168173ffffffffffffffffffffffffffffffffffffffff1614155b801561280e575061280c8184611c9a565b155b1561285057826040517fa9fbf51f0000000000000000000000000000000000000000000000000000000081526004016128479190613049565b60405180910390fd5b81156128b257838573ffffffffffffffffffffffffffffffffffffffff168273ffffffffffffffffffffffffffffffffffffffff167f8c5be1e5ebec7d5bd14f71427d1e84f3dd0314c0f7b2291e5b200ac8c7c3b92560405160405180910390a45b505b836004600085815260200190815260200160002060006101000a81548173ffffffffffffffffffffffffffffffffffffffff021916908373ffffffffffffffffffffffffffffffffffffffff16021790555050505050565b612917838383612aba565b6129cb57600073ffffffffffffffffffffffffffffffffffffffff168373ffffffffffffffffffffffffffffffffffffffff160361298c57806040517f7e27328900000000000000000000000000000000000000000000000000000000815260040161298391906132aa565b60405180910390fd5b81816040517f177e802f0000000000000000000000000000000000000000000000000000000081526004016129c2929190613bf0565b60405180910390fd5b505050565b6129da8383612b7b565b6129e76000848484612469565b505050565b6060600060016129fb84612c74565b01905060008167ffffffffffffffff811115612a1a57612a196132fc565b5b6040519080825280601f01601f191660200182016040528015612a4c5781602001600182028036833780820191505090505b509050600082602001820190505b600115612aaf578080600190039150507f3031323334353637383961626364656600000000000000000000000000000000600a86061a8153600a8581612aa357612aa26141cc565b5b04945060008503612a5a575b819350505050919050565b60008073ffffffffffffffffffffffffffffffffffffffff168373ffffffffffffffffffffffffffffffffffffffff1614158015612b7257508273ffffffffffffffffffffffffffffffffffffffff168473ffffffffffffffffffffffffffffffffffffffff161480612b335750612b328484611c9a565b5b80612b7157508273ffffffffffffffffffffffffffffffffffffffff16612b5983611ea2565b73ffffffffffffffffffffffffffffffffffffffff16145b5b90509392505050565b600073ffffffffffffffffffffffffffffffffffffffff168273ffffffffffffffffffffffffffffffffffffffff1603612bed5760006040517f64a0ae92000000000000000000000000000000000000000000000000000000008152600401612be49190613049565b60405180910390fd5b6000612bfb83836000611ef9565b9050600073ffffffffffffffffffffffffffffffffffffffff168173ffffffffffffffffffffffffffffffffffffffff1614612c6f5760006040517f73c6ac6e000000000000000000000000000000000000000000000000000000008152600401612c669190613049565b60405180910390fd5b505050565b600080600090507a184f03e93ff9f4daa797ed6e38ed64bf6a1f0100000000000000008310612cd2577a184f03e93ff9f4daa797ed6e38ed64bf6a1f0100000000000000008381612cc857612cc76141cc565b5b0492506040810190505b6d04ee2d6d415b85acef81000000008310612d0f576d04ee2d6d415b85acef81000000008381612d0557612d046141cc565b5b0492506020810190505b662386f26fc100008310612d3e57662386f26fc100008381612d3457612d336141cc565b5b0492506010810190505b6305f5e1008310612d67576305f5e1008381612d5d57612d5c6141cc565b5b0492506008810190505b6127108310612d8c576127108381612d8257612d816141cc565b5b0492506004810190505b60648310612daf5760648381612da557612da46141cc565b5b0492506002810190505b600a8310612dbe576001810190505b80915050919050565b6040518060a0016040528060008152602001600073ffffffffffffffffffffffffffffffffffffffff168152602001600073ffffffffffffffffffffffffffffffffffffffff168152602001600081526020016000151581525090565b6000604051905090565b600080fd5b600080fd5b60007fffffffff0000000000000000000000000000000000000000000000000000000082169050919050565b612e6d81612e38565b8114612e7857600080fd5b50565b600081359050612e8a81612e64565b92915050565b600060208284031215612ea657612ea5612e2e565b5b6000612eb484828501612e7b565b91505092915050565b60008115159050919050565b612ed281612ebd565b82525050565b6000602082019050612eed6000830184612ec9565b92915050565b600081519050919050565b600082825260208201905092915050565b60005b83811015612f2d578082015181840152602081019050612f12565b60008484015250505050565b6000601f19601f8301169050919050565b6000612f5582612ef3565b612f5f8185612efe565b9350612f6f818560208601612f0f565b612f7881612f39565b840191505092915050565b60006020820190508181036000830152612f9d8184612f4a565b905092915050565b6000819050919050565b612fb881612fa5565b8114612fc357600080fd5b50565b600081359050612fd581612faf565b92915050565b600060208284031215612ff157612ff0612e2e565b5b6000612fff84828501612fc6565b91505092915050565b600073ffffffffffffffffffffffffffffffffffffffff82169050919050565b600061303382613008565b9050919050565b61304381613028565b82525050565b600060208201905061305e600083018461303a565b92915050565b61306d81613028565b811461307857600080fd5b50565b60008135905061308a81613064565b92915050565b600080604083850312156130a7576130a6612e2e565b5b60006130b58582860161307b565b92505060206130c685828601612fc6565b9150509250929050565b6000806000606084860312156130e9576130e8612e2e565b5b60006130f78682870161307b565b93505060206131088682870161307b565b925050604061311986828701612fc6565b9150509250925092565b600081519050919050565b600082825260208201905092915050565b6000819050602082019050919050565b61315881612fa5565b82525050565b600061316982613008565b9050919050565b6131798161315e565b82525050565b61318881612ebd565b82525050565b60a0820160008201516131a4600085018261314f565b5060208201516131b76020850182613170565b5060408201516131ca6040850182613170565b5060608201516131dd606085018261314f565b5060808201516131f0608085018261317f565b50505050565b6000613202838361318e565b60a08301905092915050565b6000602082019050919050565b600061322682613123565b613230818561312e565b935061323b8361313f565b8060005b8381101561326c57815161325388826131f6565b975061325e8361320e565b92505060018101905061323f565b5085935050505092915050565b60006020820190508181036000830152613293818461321b565b905092915050565b6132a481612fa5565b82525050565b60006020820190506132bf600083018461329b565b92915050565b6000602082840312156132db576132da612e2e565b5b60006132e98482850161307b565b91505092915050565b600080fd5b600080fd5b7f4e487b7100000000000000000000000000000000000000000000000000000000600052604160045260246000fd5b61333482612f39565b810181811067ffffffffffffffff82111715613353576133526132fc565b5b80604052505050565b6000613366612e24565b9050613372828261332b565b919050565b600067ffffffffffffffff821115613392576133916132fc565b5b61339b82612f39565b9050602081019050919050565b82818337600083830152505050565b60006133ca6133c584613377565b61335c565b9050828152602081018484840111156133e6576133e56132f7565b5b6133f18482856133a8565b509392505050565b600082601f83011261340e5761340d6132f2565b5b813561341e8482602086016133b7565b91505092915050565b6000806040838503121561343e5761343d612e2e565b5b600083013567ffffffffffffffff81111561345c5761345b612e33565b5b613468858286016133f9565b925050602061347985828601612fc6565b9150509250929050565b6000819050919050565b60006134a86134a361349e84613008565b613483565b613008565b9050919050565b60006134ba8261348d565b9050919050565b60006134cc826134af565b9050919050565b6134dc816134c1565b82525050565b60006020820190506134f760008301846134d3565b92915050565b60a082016000820151613513600085018261314f565b5060208201516135266020850182613170565b5060408201516135396040850182613170565b50606082015161354c606085018261314f565b50608082015161355f608085018261317f565b50505050565b600060a08201905061357a60008301846134fd565b92915050565b6000806040838503121561359757613596612e2e565b5b60006135a585828601612fc6565b92505060206135b685828601612fc6565b9150509250929050565b6135c981612ebd565b81146135d457600080fd5b50565b6000813590506135e6816135c0565b92915050565b6000806040838503121561360357613602612e2e565b5b60006136118582860161307b565b9250506020613622858286016135d7565b9150509250929050565b600067ffffffffffffffff821115613647576136466132fc565b5b61365082612f39565b9050602081019050919050565b600061367061366b8461362c565b61335c565b90508281526020810184848401111561368c5761368b6132f7565b5b6136978482856133a8565b509392505050565b600082601f8301126136b4576136b36132f2565b5b81356136c484826020860161365d565b91505092915050565b600080600080608085870312156136e7576136e6612e2e565b5b60006136f58782880161307b565b94505060206137068782880161307b565b935050604061371787828801612fc6565b925050606085013567ffffffffffffffff81111561373857613737612e33565b5b6137448782880161369f565b91505092959194509250565b6000806040838503121561376757613766612e2e565b5b60006137758582860161307b565b92505060206137868582860161307b565b9150509250929050565b7f4e487b7100000000000000000000000000000000000000000000000000000000600052602260045260246000fd5b600060028204905060018216806137d757607f821691505b6020821081036137ea576137e9613790565b5b50919050565b6000606082019050613805600083018661303a565b613812602083018561329b565b61381f604083018461303a565b949350505050565b7f4e487b7100000000000000000000000000000000000000000000000000000000600052601160045260246000fd5b600061386182612fa5565b915061386c83612fa5565b925082820190508082111561388457613883613827565b5b92915050565b600061389582612fa5565b91507fffffffffffffffffffffffffffffffffffffffffffffffffffffffffffffffff82036138c7576138c6613827565b5b600182019050919050565b7f4e487b7100000000000000000000000000000000000000000000000000000000600052603260045260246000fd5b7f5072696365206d75737420626520706f73697469766500000000000000000000600082015250565b6000613937601683612efe565b915061394282613901565b602082019050919050565b600060208201905081810360008301526139668161392a565b9050919050565b6000613978826134af565b9050919050565b6139888161396d565b82525050565b60006060820190506139a3600083018661303a565b6139b0602083018561397f565b6139bd604083018461329b565b949350505050565b6000815190506139d4816135c0565b92915050565b6000602082840312156139f0576139ef612e2e565b5b60006139fe848285016139c5565b91505092915050565b7f496e73756666696369656e74206c697374696e67206665650000000000000000600082015250565b6000613a3d601883612efe565b9150613a4882613a07565b602082019050919050565b60006020820190508181036000830152613a6c81613a30565b9050919050565b6000608082019050613a88600083018761303a565b613a95602083018661303a565b613aa2604083018561329b565b613aaf6060830184612ec9565b95945050505050565b7f546f6b656e20697320616c7265616479206c6973746564000000000000000000600082015250565b6000613aee601783612efe565b9150613af982613ab8565b602082019050919050565b60006020820190508181036000830152613b1d81613ae1565b9050919050565b6000606082019050613b39600083018661303a565b613b46602083018561303a565b613b53604083018461329b565b949350505050565b7f496e73756666696369656e7420746f6b656e2062616c616e6365000000000000600082015250565b6000613b91601a83612efe565b9150613b9c82613b5b565b602082019050919050565b60006020820190508181036000830152613bc081613b84565b9050919050565b6000604082019050613bdc600083018561397f565b613be9602083018461329b565b9392505050565b6000604082019050613c05600083018561303a565b613c12602083018461329b565b9392505050565b7f546f6b656e207472616e73666572206661696c65640000000000000000000000600082015250565b6000613c4f601583612efe565b9150613c5a82613c19565b602082019050919050565b60006020820190508181036000830152613c7e81613c42565b9050919050565b7f4f6e6c79206f776e65722063616e20757064617465206c697374696e6720707260008201527f6963650000000000000000000000000000000000000000000000000000000000602082015250565b6000613ce1602383612efe565b9150613cec82613c85565b604082019050919050565b60006020820190508181036000830152613d1081613cd4565b9050919050565b600081905092915050565b6000613d2d82612ef3565b613d378185613d17565b9350613d47818560208601612f0f565b80840191505092915050565b6000613d5f8285613d22565b9150613d6b8284613d22565b91508190509392505050565b7f546f6b656e206973206e6f74206c697374656400000000000000000000000000600082015250565b6000613dad601383612efe565b9150613db882613d77565b602082019050919050565b60006020820190508181036000830152613ddc81613da0565b9050919050565b7f4f6e6c79207468652073656c6c65722063616e2063616e63656c20746865206c60008201527f697374696e670000000000000000000000000000000000000000000000000000602082015250565b6000613e3f602683612efe565b9150613e4a82613de3565b604082019050919050565b60006020820190508181036000830152613e6e81613e32565b9050919050565b60008190508160005260206000209050919050565b60006020601f8301049050919050565b600082821b905092915050565b600060088302613ed77fffffffffffffffffffffffffffffffffffffffffffffffffffffffffffffffff82613e9a565b613ee18683613e9a565b95508019841693508086168417925050509392505050565b6000613f14613f0f613f0a84612fa5565b613483565b612fa5565b9050919050565b6000819050919050565b613f2e83613ef9565b613f42613f3a82613f1b565b848454613ea7565b825550505050565b600090565b613f57613f4a565b613f62818484613f25565b505050565b5b81811015613f8657613f7b600082613f4f565b600181019050613f68565b5050565b601f821115613fcb57613f9c81613e75565b613fa584613e8a565b81016020851015613fb4578190505b613fc8613fc085613e8a565b830182613f67565b50505b505050565b600082821c905092915050565b6000613fee60001984600802613fd0565b1980831691505092915050565b60006140078383613fdd565b9150826002028217905092915050565b61402082612ef3565b67ffffffffffffffff811115614039576140386132fc565b5b61404382546137bf565b61404e828285613f8a565b600060209050601f831160018114614081576000841561406f578287015190505b6140798582613ffb565b8655506140e1565b601f19841661408f86613e75565b60005b828110156140b757848901518255600182019150602085019450602081019050614092565b868310156140d457848901516140d0601f891682613fdd565b8355505b6001600288020188555050505b505050505050565b600081519050919050565b600082825260208201905092915050565b6000614110826140e9565b61411a81856140f4565b935061412a818560208601612f0f565b61413381612f39565b840191505092915050565b6000608082019050614153600083018761303a565b614160602083018661303a565b61416d604083018561329b565b818103606083015261417f8184614105565b905095945050505050565b60008151905061419981612e64565b92915050565b6000602082840312156141b5576141b4612e2e565b5b60006141c38482850161418a565b91505092915050565b7f4e487b7100000000000000000000000000000000000000000000000000000000600052601260045260246000fdfea2646970667358221220469ba4360070d40d9359d1a013ad2a16bc9ea81f42bb845f3fc6cd54933c4bf864736f6c63430008140033",
  "linkReferences": {},
  "deployedLinkReferences": {}
}